:100000000010002065010000910100009101000036
:100010009101000091010000910100009101000098
:100020009101000091010000910100009101000088
:100030009101000091010000910100009101000078
:100040009101000091010000910100009101000068
:1000500091010000910100000920000091010000C1
:100060009101000091010000910100009101000048
:100070009101000091010000910100009101000038
:1000800091010000910100009101000010B5064CA3
:100090002378002B07D1054B002B02D0044800E049
:1000A00000BF0123237010BD880000200000000065
:1000B0001C3E000008B5084B002B03D00748084938
:1000C00000E000BF07480368002B00D108BD064BC5
:1000D000002BFBD09847F9E7000000001C3E000011
:1000E0008C0000208400002000000000164B002B34
:1000F00000D1144B9D46402292029A1A924600214A
:100100008B460F461348144A121A02F024FE0F4B76
:10011000002B00D098470E4B002B00D098470020B2
:10012000002104000D000D48002802D00C4800E01A
:1001300000BF02F0E1FD2000290001F093FF02F072
:10014000C5FDC046000008000010002000000000AF
:10015000000000008800002084090020000000004A
:1001600000000000064880470649074A074B9B1AD3
:1001700003DD043BC858D050FBDCFFF7B7FF00009D
:1001800059020000283E00000000002088000020E6
:10019000FEE7C0460048704700366E01F0231E4A55
:1001A0009B01D16A0B40802149018B422ED08021D6
:1001B00089018B4205D0802109018B4204D1174B64
:1001C00000E0174B186825E0E023D268DB001340FD
:1001D00080229200934213D007D8002B12D0013A0C
:1001E000FF3A934210D10F4814E0C022920093428C
:1001F00004D00132FF3293420BD005E00A4809E0F7
:100200000A4807E00A4805E0002003E080200002D9
:1002100000E008487047C04600800C400400002001
:100220000000002040B56400809FD500C0D8A70022
:10023000804F1200406F400108B5FFF7AFFF044B3D
:100240005A680F231340D840024B186008BDC046BF
:1002500000800C4064090020704780200002704735
:10026000FA20800070470000014B18687047C046B4
:1002700000000020084B10B51C78002C01D0002095
:1002800009E001221A70054BE358002BF7D098477C
:1002900004340028F7D010BDD4000020080000204E
:1002A0000A4A08B51278031C002A0AD000280ADC82
:1002B0002C225343081C0649C91802F043FD0020B4
:1002C00002E0044800E0044808BDC046D400002015
:1002D000A8000020050011800200118008B50B4B1A
:1002E0001B78002B0ED00A4A1368002B0CDC011C73
:1002F000581C10602C2253430648C01802F022FDFF
:10030000002002E0044800E0044808BDD4000020BA
:10031000A4000020A8000020050011800100118029
:1003200070B5802910D18026084C09492568120132
:100330003601AA18891900208A4202D91860054896
:1003400003E01D60226000E0034870BD1000002043
:10035000D500002001001180020011800048704784
:100360000400118008B500F021F900F0DDF800204C
:1003700008BD70B50E1C1D1C002420013018AC42B5
:1003800005D00021102202F0E6FC0134F5E7002040
:1003900070BDF7B50F1C04200B2100F029F90620D1
:1003A00000F009F9089B01225D1C6B46ADB29E1D51
:1003B0002B021343301C02213380002400F0D6F8B6
:1003C000099B200138189C4215D0102100F0CEF86E
:1003D000099B013B9C4202D101235B4204E0FF22C6
:1003E0006B1C1B191B021343301C02213380013488
:1003F00000F0BCF8E4E7022000F0DDF80B21042057
:1004000000F004F90020FEBD08B50821002000F02E
:10041000EFF800200A2100F0EBF808BD10B50C1E23
:1004200002D0FFF7F1FF07E0081C0A2100F0EEF808
:10043000201C082100F0EAF8002010BD30B58DB076
:1004400000F0B4F800F070F800F0BAF800220F21C4
:10045000131C022000F0BEF800220721131C032009
:1004600000F0B8F800220B21131C042000F0B2F8B1
:1004700000200821021C031C00F0ACF800200A2117
:10048000021C031C00F0A6F800220A21131C042001
:1004900000F0A0F804200A21402200F0C5F8041E54
:1004A00030D11A4B01A80193012303747F334360B9
:1004B000C3608360164B44744361164B8361164BD3
:1004C000C361164B0362164B4362164B8362FFF700
:1004D00005FF041E16D1FFF797FF0B21042000F043
:1004E00087F8062000F067F86B460425981C022167
:1004F000058000F03BF8022000F05DF8281C0B217D
:1005000000F084F8201C0DB030BDC046E43500007A
:100510001D040000210300005D03000093030000A0
:10052000730300006503000030B587B06A460A4BCC
:1005300023CB23C223CB23C2084D0948012100F05D
:1005400015FE084B281C6946029301F0C1FA0020F1
:10055000054B6B6507B030BDFC35000000C40040A2
:1005600000320400E06735000A03000038B5041CBF
:100570000D1C002D11D0012D01D0E30706D52178E7
:10058000094801F0D5FA013D0134F2E72188064817
:1005900001F0D3FA023D0234EBE7034B1B699B06E3
:1005A000FBD5002038BDC04600C4004008B500F0AF
:1005B000B1F8002008BD08B500F090F9002008BD92
:1005C00008B50348012100F0D1FD002008BDC04658
:1005D0000072040010B5141E05D1C0B2042200F050
:1005E000D9FF201C00E0014810BDC0460100138067
:1005F00001238B40191C2423C0B25843024BC0185E
:10060000016100207047C0460060004001238B401C
:10061000191C2423C0B25843024BC018416000206B
:100620007047C04610600040F0B5041C85B00D1C3A
:1006300028480121019200F099FDA02102208903A0
:10064000012201F07FF92449244B8A6801271340D5
:100650008022920013438B608B68FD3AFF3A13436C
:100660008B60291C00250023E0B200F093FF1C4999
:1006700003AC0322201C183102F064FB194E1A4807
:10068000012100F073FD1948092100F0CDFE301C56
:10069000022100F015FD0121301C00F067FD201C37
:1006A00025706570A77001F07FF9301C00F026FE00
:1006B000019901F01BFD411E0902090A281C01F0E5
:1006C00051F901F081F9381C01F05AF9281C05B0E4
:1006D000F0BDC0460042040000C00C40FFF8FFFF20
:1006E000FC35000060061000002302000200180024
:1006F00038B5051C01F0F0F8054C40B2012806D1D0
:10070000013C002C03D0281C00F0D0FFF5E738BDD9
:10071000E1930400F0B58BB0032209A8664902F00A
:1007200011FB0022654C236C01925B0705D46448E1
:10073000012100F01BFD01230193624800F050FDF0
:100740004023E26A03211A4006905E48009200F0BE
:100750006BFE5D4800F084FC8021079049005A48F8
:1007600000F0AEFCA36D002201240292234204D1CA
:100770005548211C00F0FAFC029472B6534A1368E3
:10078000591C01D0013313600126514C25683540B6
:1007900012D0236880210393A3684E4A0493E36830
:1007A000E569059300232360E3610733A3617A338E
:1007B0004901FF33D15003E02E1C059504950395A4
:1007C000002309A8837001F0EFF88022424B520108
:1007D0001A60414A13685B0013600CD0616862685C
:1007E0003B4B9142FBD03C495A6809680139FDD81E
:1007F0005B689342EDD0384B1A6852081A600922A0
:100800001B68013A002A17D05B0815D032480168EE
:1008100019430160676861688F42FCD02C494F68BA
:100820002D4908680138FDD829484068B842E8D009
:10083000086898430860E4E7244A1368002B04D052
:10084000013B1360002B00D162B6002E11D0079936
:100850001D4800F035FC012001F09CF8049B0020AD
:10086000A360059BE360039B2360E56101F092F8C0
:1008700002E0301C01F084F8029B002B03D01248E8
:10088000002100F073FC069B032B03D00D48191CBC
:1008900000F0CAFD009B002B04D10120191C1A1C7A
:1008A00000F08EFD019B002B03D00548002100F0D5
:1008B0005DFC0BB0F0BDC0461736000000800C4058
:1008C0000023020002001800600610002809002022
:1008D0000000084000E100E014000020031C08496B
:1008E000002B0CD0013B88221202003253430A68CD
:1008F000D80AD20A5043800901D00138FDD8704788
:1009000014000020044B1A780123002A02D0034B64
:1009100003600023181C70471409002008090020F8
:10092000F0B5061C0C4804780120002C13D00B4CA9
:10093000B51827880330BD420DDC6788CD18BD424D
:1009400009DC0130002A06D0002B04D00020A6804C
:10095000E18022816381F0BD140900200809002094
:10096000F0B5021C514887B004780120002C00D15A
:100970009AE04F4C2468002C00D195E04D48457C0E
:10098000002D00D08FE08568ED080395007C1D1CCC
:10099000012801D05D425D412B1C581E8341DBB212
:1009A00005935B42DBB20293434B039EDB88C9187D
:1009B0008BB25E4304930023A61901930D9B002B79
:1009C0006FD03D4B0D991D89AD1A8D4200D90D1C7C
:1009D0000D99491B0D919C881419A4B2072D21D89B
:1009E000059B2D19002B0ED0AC4245D207230121C7
:1009F000234099400B1CE208B218117801340B43D4
:100A00001370A4B2F0E7AC4236D207210122214094
:100A10008A40111CE308F3181A7801348A431A70CB
:100A2000A4B2F0E707222240E4083419002A0CD0CF
:100A30000121914001392078CBB20299083A9943BB
:100A400003400B432370AD180134EF0809D0201C7C
:100A500002993A1C02F07FF9FB00ED1AE419002D0F
:100A60000AD00123AB401D1C029A2378013DEDB250
:100A7000AB4315401D432570019B049A0F489918FC
:100A80001F224B110A40012191400A1C9B0019585A
:100A90000A431A50019B002201330193039BF6186D
:100AA0008CE7181C00E00A2007B0F0BD14090020F4
:100AB000D8080020DC080020080900206809002070
:100AC0000A4B70B50A4D9E695968DA68041C181CF7
:100AD0002B1CB0472B680B20002B06D02360054849
:100AE000FF21102202F037F9002070BDDC08002041
:100AF000D808002068090020F7B50020184E337888
:100B000083422BD1FFF7B6FB002827D1154D291CB6
:100B1000FFF7C6FB002821D1134F381CFFF7D0FF89
:100B2000041E1BD13B680B30002B17D0EB686968A3
:100B300098B2031C0D4A8FB2508050811780948068
:100B4000D480178101227B433270201C01930094D2
:100B5000211C221C231CFFF703FF201CFEBDC046E6
:100B600014090020DC080020D80800200809002013
:100B70000020F0B50126071C224B85B09C68224B53
:100B8000E4081D68C31903931E4B039AD9688A426F
:100B90001FD201222A4001D0013011E000280ED0DE
:100BA000211C79438C4619490968019000971F6AF6
:100BB000181C61445B68B847002820D1039F0137A7
:100BC000C3196D08DB06DDD10F4BB200D5580136D5
:100BD000D8E7002806D10C480021102202F0BBF80B
:100BE00000200CE07C43094A116801900097091924
:100BF000181C1C6A00225B68A0470028EBD005B0D7
:100C0000F0BDC046DC08002068090020D80800209C
:100C1000F7B5051C0C1C0520002D2DD000292BD06C
:100C20000968A2680138914226DAE368676801938F
:100C30009F4221DA2E68B0888446032061451BDB81
:100C4000F3889F4218DB3389934215DD7689019B37
:100C50009E4211DD88B2B9B2CB188218013201333D
:100C600092B29BB2FFF75CFE21686268A368E468F9
:100C7000E960AC612A616B61FEBD000030B50525FD
:100C800087B000281DD0002343600F4B041C8360F5
:100C900001A8FFF737FE051E13D1019B02901A88A9
:100CA0000390013A236004925B88201C013B02A957
:100CB0000593FFF7ADFF051E03D1201C034900F08B
:100CC0004CF9281C07B030BDFFFFFF004C39000075
:100CD00008B5031C0520002B06D000201B68011C52
:100CE0001A885B88FFF71CFE08BD37B50521002870
:100CF00014D0041C4568FFF7EBFF011E0ED12468D9
:100D00002A0C2B0AEDB2009565892089D2B268437E
:100D1000DBB20190081CFFF723FE011C081C3EBD3E
:100D2000F7B5041C0F1C161C0525002812D00C302A
:100D300000F02DF8043D00280CD0A468B8B2220CB5
:100D4000230AE4B20195B1B2D2B2DBB20094FFF74C
:100D500007FE051C281CFEBDF7B50F1C161C1C1C2D
:100D60000525002811D00C3000F011F8043D0028B2
:100D70000BD0220C230AE4B20195B8B2B1B2D2B2C0
:100D8000DBB20094FFF7ECFD051C281CFEBD10B57E
:100D9000031E0FD01C680020A1420BDB9C68A142FF
:100DA00008DC59688A4205DBD968D00FCB1791421D
:100DB0005841C0B210BDF0B587B0041C0CA8007833
:100DC00005900520002C00D183E00E1C203EF5B2DA
:100DD00003385E2D7DD8201C28300078B6B202285A
:100DE00007D10A263A2904D00136202901D030390A
:100DF0008EB2218C0220B1426BDD00270493E3699F
:100E0000039202930097A31DDB7F009A93425ED961
:100E1000E31CDB7F012B05D0022B06D1029A730065
:100E20009B5A06E0029B9B5D03E0029AB3009B582D
:100E30009BB200250193631DDB7FAB4227D9019B49
:100E4000DB0708D5039B009A5919049B201C9A18AC
:100E5000FFF766FF0BE0059B002B0DD0039B009A6C
:100E60005919049B201C9A186368FFF775FF012825
:100E70002FD843424341FF18019B01355B08019382
:100E8000ADB2D8E7059B002B09D10135ADB2631D8A
:100E9000DA7F0333DB7FD3189D42F3DB0EE0039B45
:100EA000009A5919049B201C9A186368FFF754FF95
:100EB00001280ED843424341FF18E6E7231DD97F9E
:100EC000009B761801339BB2B6B200939BE7784241
:100ED000784107B0F0BDF0B587B003930CAB40CBC1
:100EE000051C1B7805200593002D34D0002932D035
:100EF0002B1C28331B780338002B2CD08B18049321
:100F000000230C1C039F0293049B9C4220D0217859
:100F10000A2907D1AB1DDB7F039FF618EB1DDB7F92
:100F2000F61813E0059B281C00933A1C331CFFF7AE
:100F300042FF01280FD843424341029AD31802933B
:100F40006B1DDA7F0333DB7FD318FF180134DBE737
:100F500002984342584107B0F0BD08B50523002868
:100F60000AD01C301022002903D101F0F4FE052321
:100F700002E001F0E7FE0023181C08BD0A4970B525
:100F8000401800210E1C094D094B85424E41072592
:100F9000084ADC6BDA635A685A68AA4332435A60DB
:100FA0008C4200D0D96370BDFFDB0BFFFF23F40040
:100FB00000000C40711B000008B5FFF7EBF8FFF7CD
:100FC000DDFF08BDE0228021174BD2005B6989005C
:100FD00013408B4218D006D8002B0CD08022520030
:100FE00093421AD017E0C02189008B4205D093426A
:100FF00011D10E4816E00E4814E00E4BDB6C1B0EB0
:10100000122B0CD80C480DE00A4BDB6C1B0E122B7C
:1010100007D80A4806E0002004E0094802E0094831
:1010200000E009487047C04600800C40406F400116
:10103000809FD500B081E00F40420F00C0CF6A0012
:10104000C0D8A700804F120040B56400034B5A6D12
:10105000D20702D41A6D0242FCD1704700800C40C6
:1010600003061B0F043B021C00B50120032B1FD8F5
:10107000181C01F031F802050B110E4B986801E0C5
:101080000C4B58680F2318400E3B0DE00A4B9A4258
:101090000DD1084B986EF5E7084B9A4207D1054BE6
:1010A000186F03231840023B8340181C00E0012006
:1010B00000BDC04600800C406006100070071400A0
:1010C00003061B0F043B10B5032B47D8021C181C4A
:1010D0000C1C01F001F8020E2032081C01F088F906
:1010E0001F221F49101A8B68103A934318438860D7
:1010F00034E0FFF761FF201C01F07AF91F22184944
:10110000101A4B68103A934318434860FFF794F85D
:10111000FFF734FF22E0134B9A421FD10420FFF760
:1011200095FF201C01F064F91F220D49101A8B6EE7
:10113000103A93431843886610E00B4B9A420DD146
:101140004020FFF783FF201C01F052F91F220449C1
:10115000101A0B6F1C3A93431843086710BDC04622
:1011600000800C40600610007007140070B5041C6D
:101170000005000F0138092825D800F0ADFF05084B
:101180001424240B0E24241100200F4D0DE0002008
:101190000E4D0AE001200E4D07E010200D4D04E039
:1011A00000200D4D01E000200C4DE4030E1CE40E68
:1011B000002801D0FFF74AFF0123A340A640296879
:1011C00099433143296070BD08800C4044800C4035
:1011D00058800C4060800C4078800C4040800C406F
:1011E0000F231840013800B5052804D800F074FF1B
:1011F000051B2D03034000203BE01E4B8022D86AD4
:10120000F0239B01034052010320934231D08022FE
:101210000138920193422CD0174A9B1858424341FF
:101220000520C01A25E00321124A936A0B40181EBC
:1012300002281ED006208B421BD0081C012B18D080
:10124000936A0238DB0311D413E00C23094A02200D
:10125000916A0B40082B0CD004300C2B09D00338BA
:10126000042B06D0936A0238DB0202D5083000E076
:10127000072000BD00800C4000F8FFFF10B5041CE3
:10128000FFF7AEFF1A4A944204D01A4B9C4206D094
:10129000031C08E0184B986A0323034003E0164B35
:1012A0009B6A1B079B0F0020032B20D8181C00F003
:1012B00013FF0C020508FEF7D0FF18E0FEF7D4FF7D
:1012C00015E0FEF7B9FF400811E0944203D0094B46
:1012D00000209C420BD1084B10219B6A944200D005
:1012E00004310020CB40834201D0FEF7B9FF10BD8E
:1012F0000200180003001A0000800C4008B5F82313
:101300009B031840E0231B0398424CD010D8802345
:101310009B0298422AD002D8002841D046E0802380
:10132000DB0298421DD0C0231B03984231D03DE020
:10133000A0235B03984225D009D880235B03984201
:1013400034D11B48FFF79AFF1A4B9A6E13E0C02363
:101350005B0398420DD0D0235B03984226D11648F8
:101360000DE0FEF71BFF134B9A6804E0FEF764FFE5
:101370001DE00F4803E00F231340D84017E0FFF7AC
:101380007DFF14E00C48FFF779FF0A4B1A6F032327
:10139000F2E70A48FFF724FF072804D0082805D100
:1013A000FEF7FCFE03E0FFF70DFE00E0002008BDA5
:1013B0000200180000800C4003001A0006000C0018
:1013C00038B504282AD800F087FE0F0B0315070054
:1013D00008200423032410E02020102305240CE01F
:1013E00080204023072408E08020802380005B00C9
:1013F000092402E0012302201C1C094D00290AD007
:101400002B62002A08D00123A3401C1C054B1B683B
:101410002342FBD000E0286200F076F838BDC046D9
:1014200000800C402C800C400F23184010B5041E87
:10143000012C04D000285DD0032821D95AE0881E51
:10144000032857D800F048FE0B02050801200324AA
:1014500007E00220041C04E00320012401E0002036
:10146000042401210A1CFFF7ABFFFFF7A5FD224B67
:101470005C6200F049F8FEF7DFFEFFF77FFD39E020
:10148000481E082836D800F027FE200810353518E9
:10149000353505000123002219E0012100200A1C36
:1014A000FFF78EFF0023022211E00120021C011C25
:1014B000FFF786FF0023012209E004230F4A116889
:1014C0000B4313600023032201E000231A1C0A4986
:1014D000022C07D18C6A0A481B04204002431A439D
:1014E0008A6207E092001B05886A1343054A02409E
:1014F00013438B6210BDC04600800C4040800C40FE
:10150000FCFFFEFFF3FFEFFF024BDA6A024B1A60AB
:101510007047C04600800C4018090020F7B508AAA3
:10152000157809AA01931478072902D88A00134E66
:1015300003E00A1C124E083A9200072393409040A1
:1015400037688C409F433843306001208840019BBE
:10155000C2438B408D40211C0A4E376817403B43E5
:101560003360094E336813401D43084B35601862E1
:10157000074B1868024011431960F7BD0061004035
:1015800004610040086100400C610040FC600040C4
:1015900010610040F0B5002A0CD0012524248D40B4
:1015A0004443002B03D0194EA419256102E0184EC4
:1015B000A419656024244443144D641907290AD8EA
:1015C0000F278D00AF406668BE43171CAF403D1C1F
:1015D000354365600AE00F270E4EA5688E19B600E8
:1015E000B740BD43171CB7403D43A560002A0CD14E
:1015F000012424328C404243002B03D0034BD218E9
:10160000146102E0024BD2185460F0BD006000404B
:1016100010600040F8FFFF3F70B5041C151C081C4B
:101620001E1C002A1DD022680E4B1A402260226820
:101630001340320213432360002902D10A48FFF706
:101640005DFE2368094BA900401A995D694300F0CB
:101650004DFD236801389B0702D5002800D10130D9
:10166000206170BDFFFCFFFF408104007C3C000056
:101670000023022270B5012643630B4B0D1C03634C
:101680000368041C93431A1C4B787340B340134304
:101690000360AA680B7B4968FFF7BEFF23682A78BE
:1016A000B3431343236070BDCFFF01008849F0B5F9
:1016B000FC22884200D009E1864B9E685C881A793A
:1016C0001F78C0208D6AC00005420BD05C801A7163
:1016D000AA0501D5FD2202E06A0501D5FE225A7055
:1016E0000922E6E0082F00D9DEE0381C00F0F4FC07
:1016F000051B425C744E96AAD2001A715C807488F5
:101700003288E00604D50620120A0240EA3004E0DE
:10171000FE200240A00701D50120024301201870DD
:101720004A624860C6E08020054200D079E0402748
:101730003D4201D101207EE00F63654877888446F1
:101740000225F80606D560461A7132785C801D7055
:101750004262AFE02F4273D05C8007241A71D2003E
:101760001C70B6183289012A00D0A3E06046121915
:1017700042609FE08020054253D1402702203D4235
:1017800059D00F63758805425AD00BE0D00030184D
:101790000589A5423AD8042074880132D2B220408B
:1017A00029D0002403278CE71A715C807488328862
:1017B000E00605D50620120A0240EA30024301E0A5
:1017C000FE2002400420044201D00124224318706C
:1017D000012048604A626DE08020054221D1402707
:1017E00004203D4227D00F637588054228D01A7126
:1017F0005C8007225DE001252C4002D058801A71E0
:1018000038E0012A00D85CE75C80F8E71A7142688A
:10181000601C125D58804A6206224AE08020054220
:1018200005D01A71FF225C8008635A7022E04020C4
:10183000054204D13A3818705C801A713AE00863A6
:1018400005273EE707205C8018701A71A80631D57D
:10185000D200B6183089A2B2CD69824203D2746830
:10186000561C5E80A5545A88824208D3012801D1B3
:1018700008224A6008221A70063A4A601AE00424D4
:101880004C60012816D00138824213D10820104A3A
:1018900050600FE01A7180220820520018705C809E
:1018A000154207D00A631BE71A71FB225C805A704D
:1018B000F23A1A7018780122092807D100224A63E7
:1018C00001215956012900D15A705A7850B2F0BD01
:1018D00000A000401C090020174B10B5984201D011
:1018E000FC2026E09A68D20701D520225A604A8857
:1018F000900702D508890028F2D0520702D50A8A3B
:10190000002AEDD0002001240C4A10711070547090
:1019100050809160C0225A609A6A920601D5064AA8
:10192000D269074A04481A63FC22D2005A63FFF7BF
:10193000BDFE40B210BDC04600A000401C09002002
:10194000CFFF010007231A4080235B051A43FC23C5
:101950009B0319400430024B11438000C150704773
:1019600000C00C40002803D0012803D1024B00E046
:10197000024B19607047C0460C0008400800084040
:101980000121034A13688B43184310607047C04617
:1019900000000840034B002802D001221A6200E038
:1019A000186270470000084042780378002A01D08E
:1019B000022213438278002A01D004221343014AF1
:1019C000136070470000084008B50020FFF7D8FFFB
:1019D0000120FFF7D5FF08BD30B50C78002C01D1F0
:1019E00002234360002343628B781A06CB781B04E2
:1019F00013430A7A13438A7992021343CA79120273
:101A000013434A78551EAA41920113434A7A551E40
:101A1000AA41D20113438A7A551EAA4152011343A7
:101A2000CA7A551EAA41120113430A79551EAA41CA
:101A3000520313434A79551EAA41120713430A7BE6
:101A4000511E8A41D20013430360002C01D00123B0
:101A5000436030BD38B5041C151C081E02D10A486D
:101A6000FFF74CFC691E40000818291C00F03EFBE3
:101A70008001021C61690548054B403A02400B4059
:101A80001A43626138BDC0464081040000FF1F0058
:101A90003F00E0FF0A4B0B4AC36000230360426033
:101AA000094A83604361C3648264084A4365904283
:101AB00000D103658365904201D10023C36570475F
:101AC000AA0E000005100000F91F000000C400402D
:101AD00038B50D1C041CFFF7DDFF01222B8A21689D
:101AE0001343AA7B0B43501E82419202134323608F
:101AF0002B7D2268591E8B415B0713432360AB7C0F
:101B0000002B03D01022EB7C1343A36580222B7B98
:101B1000520113436360201C6968AA68FFF79AFFAB
:101B20006B7B002B01D01023E3602B78E36038BD82
:101B300003695B06FCD54163704703695B06FCD50E
:101B4000C163704708B5002303484360034B8360BB
:101B5000FFF7CBF808BDC0462C090020FFFFFF00AF
:101B600030B5164C93B0201C1549FFF7F6F915490E
:101B700003A801F02DF903A801F032F900250F2385
:101B8000021C009303A90195201CFFF7A4F9201C57
:101B90000D49FFF7E2F93C210C4A03A801F0E4F8F3
:101BA00003A801F01DF93723021C00930195201CA6
:101BB00003A9323BFFF78FF913B030BD2C09002089
:101BC0004C390000803C00001C3600009A3C0000AC
:101BD00008B5FEF74FFB002800D0FEE7FEF78CFFAC
:101BE000002800D0FEE70348FFF748F8002800D09F
:101BF000FEE708BD2C090020F0B595B00E1C029040
:101C0000FFF7A0FFFFF7ACFF784F05AC7849381C11
:101C1000FFF7A3F97749201C01F0DAF8201C01F046
:101C2000DFF800256423021C0093211C5F3B019513
:101C3000381CFFF750F97049201C01F0C9F8201C2E
:101C400001F0CEF87323021C0093211C6E3B01951A
:101C5000381CFFF740F9301C684900F01FFD00F008
:101C6000CDFF674B06B29E420CDD301C654900F08B
:101C7000B3FB08B2FA21890000F0C8FA30302070B6
:101C8000013501E0632E10DDFA216319301C890053
:101C9000039300F0A1FB08B2642100F0B7FA039BA4
:101CA000303001351870EDB202E02B1C092E0EDD2C
:101CB0006319301C6421039300F08EFB08B20A21E3
:101CC00000F0A4FA039B303001351870EBB22522E6
:101CD00072210025E2545A1CD2B2A1549A1C03333B
:101CE000DBB2D2B22A39E318A154201C1D7001F0D6
:101CF00077F86423021C0093211C1F3B0195381CBC
:101D0000FFF7E9F83D49029800F0C8FC00F076FFC3
:101D100086B2030404D52D237642B6B22370013572
:101D2000374B36B29E4210DD6319301C35490293A1
:101D300000F052FB08B2FA21890000F067FA029B1A
:101D4000303001351870EDB201E0632E10DDFA215C
:101D50006319301C8900029300F03EFB08B2642135
:101D600000F054FA029B303001351870EDB201E0FA
:101D7000092E0EDD6319301C6421029300F02CFB48
:101D800008B20A2100F042FA029B30300135187087
:101D9000EDB22E2363556B1CDBB2E3180293002EC9
:101DA00007DD301C0A2100F017FB029B303119704F
:101DB00002E03023029A137043220026AB1C033545
:101DC000EDB2DBB26519E254201C2E7001F008F868
:101DD0007323021C0093211C1A3B0196381CFFF749
:101DE0007AF8FEF7C5FE15B0F0BDC0462C090020FC
:101DF0001C360000D93C0000E53C000000002041FA
:101E0000E70300001027000010B592B0FFF79AFE1C
:101E1000FFF7A6FE0C4C0D49201CFFF79EF80C495D
:101E200003A800F0D5FF03A800F0DAFF69230093B0
:101E30000023021C019303A90F33201CFFF74BF86A
:101E4000FEF796FE12B010BD2C0900204C390000A0
:101E5000F43C000010B592B0FFF774FEFFF780FE6F
:101E60000C4C0D49201CFFF778F80C4903A800F032
:101E7000AFFF03A800F0B4FF692300930023021C06
:101E8000019303A90F33201CFFF725F8FEF770FE1E
:101E900012B010BD2C0900204C390000023D00009A
:101EA00008B5FFF74FFEFFF75BFEFEF761FE08BDCA
:101EB0007FB5502301A90B804F3B4B800023034883
:101EC0000B810B82FEF714FC07B000BD00A00040A0
:101ED000502330B587B001A90B804E3B4B806B4639
:101EE00000244B6004230C820B812048FEF700FC89
:101EF0006A4690786B46D278000210433F256A46C6
:101F00001B7852781D4059062D021543C90FDA0976
:101F10008010FE23012A25D00133A04222D0A54201
:101F200020D0134A90421DD095421BD0231C01297A
:101F300018D000F083FE0F4900F0B0FB0E4900F00E
:101F400075FA0E4900F0DCFC0D4B1860281C00F0FF
:101F500075FE0C4900F0A2FB074900F067FA0A4B36
:101F60001860231C58B207B030BDC04600A0004026
:101F7000FF3F00000000254300FC7F460000204298
:101F8000780900200000C8427C09002030B585B0E7
:101F900000210D22684600F0DEFE01256B466A46F0
:101FA0001D700A23074C6946201C9370FFF714FD2F
:101FB0006560626A044B9A42FBD90222014B5A6067
:101FC00005B030BD000001405605000008B5FFF720
:101FD0006FFFFFF7DBFFFFF77BFF002806D1084B01
:101FE0001868084B1968FFF707FE08E0831C02D148
:101FF000FFF730FF03E0431C01D1FFF705FF08BDE9
:10200000780900207C09002038B5054B9D691C1C0F
:10201000AB0503D5FFF744FFFFF7D8FF256238BDB6
:10202000FC60004030B585B06A460B4B694631CB49
:1020300031C21B6809481360826B094B1340C022F0
:10204000D200134303228363836B13438363FFF73D
:102050000FFB05B030BDC046103D000000A00040A1
:10206000FFF8FFFF07B518480121FFF77FF8174871
:102070000121FFF77BF816480121FFF777F8FFF7FA
:10208000D1FF04200C210B220123FFF783FA042047
:102090000D210B220123FFF77DFA01220220131CE0
:1020A0000921FFF777FA0123092100930A1C019304
:1020B00002200023FFF732FA4022064B1A60FFF796
:1020C00087FDFFF7EDFEFEE700720400000204004A
:1020D00000B2040000E100E002B471464908490082
:1020E000095C49008E4402BC7047C0460022430888
:1020F0008B4274D303098B425FD3030A8B4244D3D0
:10210000030B8B4228D3030C8B420DD3FF22090211
:1021100012BA030C8B4202D31212090265D0030BD0
:102120008B4219D300E0090AC30B8B4201D3CB03C6
:10213000C01A5241830B8B4201D38B03C01A524108
:10214000430B8B4201D34B03C01A5241030B8B420A
:1021500001D30B03C01A5241C30A8B4201D3CB02F5
:10216000C01A5241830A8B4201D38B02C01A5241DA
:10217000430A8B4201D34B02C01A5241030A8B42DD
:1021800001D30B02C01A5241CDD2C3098B4201D3F5
:10219000CB01C01A524183098B4201D38B01C01A73
:1021A000524143098B4201D34B01C01A52410309EA
:1021B0008B4201D30B01C01A5241C3088B4201D399
:1021C000CB00C01A524183088B4201D38B00C01A46
:1021D000524143088B4201D34B00C01A5241411A6D
:1021E00000D20146524110467047FFE701B500207A
:1021F00000F0FCF802BDC0460029F7D003B5FFF798
:1022000075FF0EBC4243891A1847C04603460B436C
:102210007FD4002243088B4274D303098B425FD3DF
:10222000030A8B4244D3030B8B4228D3030C8B420B
:102230000DD3FF22090212BA030C8B4202D31212F1
:10224000090265D0030B8B4219D300E0090AC30BC6
:102250008B4201D3CB03C01A5241830B8B4201D373
:102260008B03C01A5241430B8B4201D34B03C01A5C
:102270005241030B8B4201D30B03C01A5241C30AD4
:102280008B4201D3CB02C01A5241830A8B4201D345
:102290008B02C01A5241430A8B4201D34B02C01A2F
:1022A0005241030A8B4201D30B02C01A5241CDD2D4
:1022B000C3098B4201D3CB01C01A524183098B421F
:1022C00001D38B01C01A524143098B4201D34B0108
:1022D000C01A524103098B4201D30B01C01A52416B
:1022E000C3088B4201D3CB00C01A524183088B42F2
:1022F00001D38B00C01A524143088B4201D34B00DB
:10230000C01A5241411A00D201465241104670474C
:102310005DE0CA0F00D04942031000D34042534051
:1023200000229C4603098B422DD3030A8B4212D311
:10233000FC22890112BA030A8B420CD38901921143
:102340008B4208D3890192118B4204D389013AD080
:10235000921100E08909C3098B4201D3CB01C01A55
:10236000524183098B4201D38B01C01A5241430968
:102370008B4201D34B01C01A524103098B4201D356
:102380000B01C01A5241C3088B4201D3CB00C01AC3
:10239000524183088B4201D38B00C01A5241D9D2DB
:1023A00043088B4201D34B00C01A5241411A00D25C
:1023B0000146634652415B10104601D34042002B58
:1023C00000D54942704763465B1000D3404201B5D7
:1023D000002000F00BF802BD0029F8D003B5FFF78C
:1023E00015FF0EBC4243891A1847C0467047C046C5
:1023F0001C2101231B04984201D3000C10391B0A35
:10240000984201D3000A08391B09984201D30009F8
:10241000043902A2105C40187047C046040302024F
:10242000010101010000000000000000F0B5564667
:102430004D465F464446F0B443024500C70F83B0A3
:102440008A465C0A2E0EB94641D0FF2E26D0802344
:102450001B042343DC00002398469B467F3E5346E3
:102460005B025D0A53465A00DB0F120E9A4639D0C2
:10247000FF2A33D080231B042B43DD0000237F3A47
:102480005146B21A46467940081C01921E430F2E4F
:1024900000D976E07E4AB6009659B746002C30D176
:1024A00008239846063B9B46D9E780230021DB039F
:1024B000FF245B02E4055B0AC90723430B43181C96
:1024C00003B03CBC90469946A246AB46F0BD002CFA
:1024D00028D104239846033B9B46C0E7002D1FD11B
:1024E000022302E0002D11D10123B21A50464646C4
:1024F000784001921E430F2E27D86649B6008959AD
:102500008F460C239846093B9B46A8E7281CFFF7FB
:102510006FFF7622431F52429D40121A0023AFE7FD
:102520000323ADE7201CFFF763FF431F9C40762386
:102530005B421E1A002398469B4690E70025D14631
:102540009B465B464846022B6FD10121FF24014088
:102550000023AEE77E23019A5B429B1A1B2B6DDDA5
:1025600001214B46194000240023A2E78023DB030E
:102570001C4249D18023DB0323435B025B0A391CE5
:1025800096E763016D01AB4237D389461A200121DA
:102590005B1B01241E1C49005B00002E01DBAB42CB
:1025A00001D35B1B214301380028F3D1581E83411E
:1025B0000B431D1C019C7F34002CCBDD6B0704D02A
:1025C0000F232B40042B00D004352B0104D5019A96
:1025D000314B8032141C1D40FE2C07DD4B4601217F
:1025E000FF241940002364E7251CAAE701214A467D
:1025F000AB015B0AE4B211405BE7019A8946013AFC
:1026000001921B200021C4E71D4207D023435B0237
:102610005B0A391C4CE700256302ABD58023DB0342
:102620002B435B025B0A514642E7032B25D0012B6B
:10263000C0D101210024014000233AE7291CD940E0
:102640002B1C019A9E3293405D1EAB410B435A07EF
:1026500004D00F221A40042A00D004335A0105D5B1
:102660004B46012101241940002322E701214A465B
:102670009B015B0A114000241BE7802301214A468D
:10268000DB032B435B020A405B0A111C10E7C046C8
:10269000203D0000603D0000FFFFFFF7F0B55F4602
:1026A00056464D464446F0B445024600C40F83B03A
:1026B0000F1C6D0A360EA34645D0FF2E25D0802371
:1026C0001B041D4300239A46ED007F3E01937B02CD
:1026D0005B0A98467800FB0F000E994640D0FF2811
:1026E00038D0802342461B041343DB009846002366
:1026F0007F384A46019F30186240411C1F430F2F0C
:1027000069D87D4EBF00F659B746002D45D1082344
:102710000193063B9A46DAE793465346022B2FD1A4
:102720005B46012400251C40FF236D02DB056D0A7A
:10273000E4071D432543281C03B03CBC9046994642
:10274000A246AB46F0BD002D2CD104230193033BE0
:102750009A46BCE743465A4253410322D31AC8E77C
:1027600042460123002AC4D04046FFF741FE4246BC
:10277000431F9A4076235B42181A90460023B8E71D
:10278000032B00D1ADE0012B00D08CE05B4654461A
:102790001C40E4B200230025C7E70C230193093B4A
:1027A0009A4694E7281CFFF723FE7626431F9D4098
:1027B00000237642361A01939A4688E78025002442
:1027C000ED03FF23B1E74546CB469A46A5E74546CC
:1027D00093469A46A1E743462C041B0C9C46230CC7
:1027E000444626041C1C360C2F0C7443351C6646CC
:1027F0007D4373437743EB18260C9E19B54203D9EA
:1028000080235B029C46674424043304240C1B1978
:102810009D016C1EA5419B0E360C2B43BD19AD01CD
:102820001D432B0104D5012368081D400543081CE6
:10283000031C7F33002B2CDD690704D00F212940B6
:10284000042900D00435290103D52C4B1D40031C5D
:102850008033FE2B17DD0124FF231440002564E79D
:102860008020C003054209D04346034206D14546B5
:1028700005436D026D0A4C46FF2356E705436D0282
:102880006D0AFF2351E70124AD016D0ADBB214404C
:102890004BE77E235B421B1A1B2B07DD0124002321
:1028A0001440002541E7081C5A46C1E79E30291C08
:1028B0008540D940681E85410D436B0704D00F2326
:1028C0002B40042B00D004356B0104D501240123D7
:1028D0001440002529E70124AD016D0A14400023AE
:1028E00023E78023DB031D4301245B466D02234065
:1028F0001C1C6D0AFF2318E7A03D0000FFFFFFF737
:10290000F8B54A00430244004D02C00F240E061CD5
:102910009B09120EC90FAD09FF2A00D175E00127EE
:102920007940884250D0A01A002800DC8FE0002AAD
:102930001ED1002D00D075E05A0704D00F221A4096
:10294000042A00D0043380220120D2041A403040EF
:10295000002A32D00134FF2C00D184E09B015B0AB5
:10296000E4B25B02E4055B0A2343C0071843F8BDE9
:10297000FF2CE1D08022D20415431B287ADD0125EB
:102980005B1B5A015DD59B019F09381CFFF730FD89
:1029900005388740844269DC001B1F243A1C431C15
:1029A000201ADA408740131C7C1EA74100243B43B9
:1029B000C2E7131E45D100230020DB08FF2C28D0DE
:1029C0005B025B0AE4B2CCE7A11A00295BDD002AB6
:1029D0002ED0FF2CB0D08022D20415431B2974DCEA
:1029E0002F1C2022CF40511A8D40691E8D413D433E
:1029F0005B195A0125D50134FF2C74D001217E4A80
:102A0000194013405B080B4396E7002D00D088E780
:102A100085E7002B27D08022D20313435B025B0A99
:102A2000FF249EE701380028AAD0FF2CA5D183E718
:102A3000002D00D180E701390029D9D0FF2CCDD15C
:102A40007AE75A0700D079E701203040B5E700283F
:102A500025D1621CD2B2012A55DD5F1B7A012DD52A
:102A6000EF1A0E1C91E7FF2400237AE7624B241A29
:102A70003B4061E7291C2022C140101A8540681E96
:102A800085410D437CE7002946D1621CD1B2012962
:102A90002BDDFF2A26D0EB185B08141C4CE7002C1A
:102AA00015D0FF2A1AD08024E404404223431B2877
:102AB0004DDD0123EB1A141C0E1C62E7002F00D021
:102AC00063E700230020002477E7012590E7002B2F
:102AD00039D0C0430028EDD0FF2AE8D12B1CFF24B9
:102AE0000E1C29E7FF24002367E7002C5AD1002B96
:102AF0007FD0002D00D11FE75B195A01A1D53E4AB6
:102B00000134134018E7002C15D1002B2FD1002DD4
:102B10005ED02B1C0E1C0FE7002C21D1002B54D0B3
:102B2000C943002904D0FF2A4CD01B2958DD0123BA
:102B30005B19141C5DE7002B23D1002D4BD02B1CFF
:102B40000E1CFF24F8E62B1C141C0E1CF4E61E1CA5
:102B50002024C640201A8340581E83413343A9E7EE
:102B6000FF2A2FD08024E40449422343DDE7002DCF
:102B700000D1E1E65A1B500100D41AE7EB1A0E1CF3
:102B8000DAE6FF24002D00D1D6E68022DB08D2034E
:102B9000134204D0ED08154201D12B1C0E1CDB00A2
:102BA000FF24C9E6002B0DD0FF24002D00D1C3E681
:102BB0008022DB08D2031342F1D0ED081542EED19A
:102BC0002B1CECE72B1CFF24B6E62B1C141CB3E6D5
:102BD000231C0020F1E6802300209B04FF24ECE668
:102BE0001F1C2024CF40611A8B40591E8B413B4350
:102BF0009EE72B1CA0E6C046FFFFFFFB4202510AE6
:102C00004200C30F120E00207E2A0DDD9D2A0CDC2F
:102C1000802000040143952A0ADC9620821AD140C4
:102C20000A1C58424240D0187047034A9818FBE7E4
:102C3000963A91400A1CF4E7FFFFFF7F10B5041E8F
:102C400035D0FFF7D5FB9E21091A962909DC082803
:102C500030DD021C231C083A93405B025B0AC8B2B9
:102C600020E099290CDD0522231C121AD3401A1CDE
:102C7000031C1B339C40231C5C1EA34113431C1CE0
:102C8000052801DD431F9C400F4B2340620704D001
:102C90000F221440042C00D004335A010ED49B019F
:102CA0005B0AC8B25B025B0AC005184310BD002076
:102CB0000023F7E763025B0AC8B2F3E79F21024AE9
:102CC000091A1340EBE7C046FFFFFFFB084B10B5A6
:102CD000041C002B02D0002100E000BF054B186847
:102CE000836A002B00D09847201C00F06DFCC04682
:102CF00000000000E43D00000E4B70B500251E1CD6
:102D00000D4CE41AA410A54204D0AB00F358984728
:102D10000135F8E700F05AFC084B00251E1C084C52
:102D2000E41AA410A54204D0AB00F358984701352B
:102D3000F8E770BD7C0000207C0000207C000020B3
:102D400080000020002310B5934203D0CC5CC45413
:102D50000133F9E710BD031C8218934202D01970A9
:102D60000133FAE7704700000CB430B5174B9DB043
:102D70001D68002904DA8B2301202B6040421FE0EC
:102D8000822302AA9B009381002302901061994242
:102D900000D04B1E9360536101235B42D3810C1C16
:102DA00021AB111C281C209A019300F081F8431CD0
:102DB00001DA8B232B60002C02D00023029A1370BF
:102DC0001DB030BC08BC02B01847C04678000020D7
:102DD000031C0A7801311A700133002AF9D17047B7
:102DE0000023C25C0133002AFBD1581E704700004B
:102DF000F0B58E6885B0071C0C1C03920193B3429A
:102E000045D390238A89DB001A423DD00325096906
:102E1000236801985B1A029363695D43EB0F5D19A8
:102E2000029B6D1001331B189D4200D21D1C381CE3
:102E300053050FD5291C00F01DFB061E13D0029A66
:102E40002169FFF77FFFA289184B134080221343AB
:102E5000A38111E02A1C00F065FB061E0CD1381C72
:102E6000216900F0C1FA0C23402201203B60A389B4
:102E700040421343A38117E0029B2661F6182660A7
:102E80006561019EED1AA560019BB34200D2019ECF
:102E9000321C2068039900F092FA0020A3689B1B63
:102EA000A36023689E19266005B0F0BD7FFBFFFF7D
:102EB000F0B59FB0029005938B890E1C171C1B0662
:102EC00010D50B69002B0DD1402100F0D3FA3060F2
:102ED0003061002804D10C23029A01381360D0E03D
:102EE00040237361002306AD6B6120336B76103392
:102EF000AB763C1C2378002B03D1E31B049312D048
:102F000003E0252BF9D00134F4E7049B0298311C2F
:102F10003A1CFFF76DFF431C00D1ACE06A69049BCB
:102F2000944663446B612378002B00D1A3E0012217
:102F3000002352426A6002A95432521801342B60B5
:102F4000EB60AB601370AB654F4F2178381C0522E6
:102F500000F02AFA002808D0C01B01278740381C3F
:102F60002B68013418432860EEE72B68DA0604D595
:102F70005322202102A8121811701A0704D55322D7
:102F80002B2102A81218117022782A2A01D0099B3D
:102F90000EE0059A111D12680591002A01DB0992C5
:102FA00004E05242EA60022213432B60013409E03C
:102FB0002278303A092A04D80A214B4301349B185D
:102FC000F6E7099323782E2B18D163782A2B09D1A1
:102FD000059B02341A1D1B680592002B0DDA012394
:102FE0005B420AE0002301342278303A092A04D8EF
:102FF0000A214B4301349B18F6E70793234F2178AE
:10300000381C032200F0D0F9002807D0C01B40274D
:103010008740381C2B6801341843286021781C48ED
:103020000622671C297600F0BFF9002812D0194B40
:10303000002B06D10722059B0733934308330593E2
:1030400014E005AB00930298291C321C124B00E0DF
:1030500000BF07E005AB00930298291C321C0E4B01
:1030600000F08AF80390039B013304D06B69039A44
:103070009B186B613DE7B3890B985B0601D5012076
:1030800040421FB0F0BDC046E83D0000EE3D0000EC
:10309000F23D000000000000F12D0000F7B5171C04
:1030A00001930A698B6800900C1C934200DA131C90
:1030B000221C3B6043321278002A01D001333B606E
:1030C00023689B0602D53B6802333B6006252368D4
:1030D0001D401ED0231C43331B785A1E9341226887
:1030E00092061CD53020E1184031C870211C5A1CB2
:1030F00045310978A21840320233D1700FE0221C0A
:103100000123009801991932089EB047431C0ED044
:103110000135E3683A689B1A9D42F0DBDAE7221C2E
:10312000009801994332089DA847431C02D1012011
:10313000404220E006232068E1683A680340002509
:10314000042B03D18D1AEB43DB171D40A3682269C2
:10315000934201DD9B1AED180027AF420ADA221CC8
:103160000123009801991A32089EB047431CDED013
:103170000137F2E70020FEBDF0B58BB006920A1CC5
:1031800043320793059004920A7E0C1C109B6E2A12
:1031900000D1A8E011D8632A22D009D8002A00D192
:1031A000B2E0582A00D0C2E045310A707C4A4FE0B4
:1031B000642A1DD0692A1BD0B9E0732A00D1A7E088
:1031C00009D86F2A29D0702A00D0B0E020220968DF
:1031D0000A43226037E0752A1FD0782A33D0A6E050
:1031E0000E1C1A684236111D196013683370A1E075
:1031F00021681A68080606D4490604D5111D19600D
:103200000023D55E02E0111D19601568002D3BDA20
:103210002D23049A6D42137036E021681A6808065F
:1032200006D4490604D51568111D1960ADB202E037
:10323000111D196015685A4B227E03930A276F2AC5
:103240001DD108271BE0221C782145321170554AF8
:1032500019680392081D226818600D68100602D4D0
:10326000500600D5ADB2D30702D520231A43226001
:103270001027002D03D1202322689A432260231CAB
:10328000002243331A7002E00A27454B0393636818
:10329000A360002B03DB0422216891432160002DF1
:1032A00002D1049E002B0ED0049E281C391CFEF770
:1032B000A3FF039B013E5B5C281C3370391CFEF7A7
:1032C00015FF051EF1D1082F09D12368DB0706D5AC
:1032D00063682269934202DC3023013E3370049B11
:1032E0009B1B23612BE009681A68080607D449066E
:1032F00005D5111D19601368A28A1A8004E0111DFA
:103300001960136862691A600023049E236116E045
:103310001A68111D196016680021301C626800F0DF
:1033200043F8002801D0801B6060636803E0261C1E
:1033300042363270012323610023049A1370079BE5
:1033400005980093211C069B09AAFFF7A7FE431CC2
:1033500002D10120404221E0236905980699321CE0
:10336000079DA847431CF4D023689B0705D4099BFD
:10337000E068984212DA181C10E00025E368099A08
:103380009B1A9D42F3DA221C0123059806991932F3
:10339000079EB047431CDCD00135EFE70BB0F0BD12
:1033A000F93D00000A3E0000C9B28218904204D0E4
:1033B00003788B4202D00130F8E70020704710B547
:1033C000814208D28B18984205D29B1A013A09D340
:1033D000995C8154FAE70023934203D0CC5CC45437
:1033E0000133F9E710BD000030B500293ED00439A3
:1033F0000B68002B00DAC9181D4A1368141C002B37
:1034000002D14B60116031E099420DD208680A1870
:103410009A4203D11368C3180B6053684B60216054
:1034200024E08A4203D8131C5A68002AF9D11D6887
:103430005C198C420BD109686918581819609042C0
:1034400014D110685268091819605A600EE08C4255
:1034500002D90C23036009E008680C18944203D1D8
:1034600014685268001908604A60596030BDC0464F
:103470005C090020032370B5CC1C9C430834051C58
:103480000C2C01D20C2405E0002C03DA0C230020C4
:103490002B6042E08C42F9D3204A1368101C191C9F
:1034A000002913D00A68121B0DD40B2A02D90A6016
:1034B0008B181FE08B4202D15A6802601BE04A68F9
:1034C0005A600B1C17E00B1C4968E9E7144E33687F
:1034D000002B03D1281C00F04BF83060281C211C65
:1034E00000F046F8031C421CD0D00322C61C9643B1
:1034F00086420AD11C60181C07210B301A1D884314
:10350000821A0AD05142995007E0311A281C00F063
:103510002FF8431CBAD0331CECE770BD5C090020C7
:1035200058090020F8B5061C0C1C151C002904D1F4
:10353000111CFFF79FFF041C18E0002A03D1FFF7BE
:1035400053FF2C1C12E000F025F8A8420ED2301CCC
:10355000291CFFF78FFF071E07D0211C2A1CFFF72D
:10356000F1FB301C211CFFF73FFF3C1C201CF8BD69
:1035700038B50023064C051C081C236000F016F823
:10358000431C03D12368002B00D02B6038BDC046FC
:10359000800900200B1F1A68101F002A04DA8918FE
:1035A00004390B68D018043870470000044A1368C7
:1035B000002B03D018181060181C7047014BF9E756
:1035C0006009002088090020FEE7C046F8B5C04623
:1035D000F8BC08BC9E467047F8B5C046F8BC08BCAD
:1035E0009E4670475368617270204C5330313342AD
:1035F000374448303320233100000000050000002C
:103600000000000040420F00050100000000000023
:103610000000000001000101000100002C36000044
:1036200020030164060802000100000000040A0AE9
:103630000403060608020000000000000E040E1F2E
:10364000081F0C1F0E0E00001000010E0E0E0F0EB4
:10365000071F1F0E110E1C110111110E0F0E0F1E50
:103660001F11111111111F0E000E040002000100A4
:1036700010000C000104080106000000000000001A
:10368000020000000000000C040600000000000022
:1036900000040A0A1E1309040404040400000000C4
:1036A000110611080C010210111106060800021182
:1036B000101111110901011111040809011B111147
:1036C00011111101041111111111100200080A0049
:1036D000040001001000121E01000001040000009F
:1036E00000000000020000000000000204080200C8
:1036F0000000000000040A1F01080502020815046A
:1037000000000010190410040A0F01081111060628
:10371000041F041010111101110101011104080509
:103720000115131111111101041111110A110802CF
:1037300001081100080E0D0E160E02110D060C09DF
:10374000040B0D0E0F160D0E0711111111111F0292
:1037500004081500000000000004000A0E04020026
:1037600002080E1F001F00081504080809100F04A6
:103770000E1E00000200080816110F01110F0F1D88
:103780001F040803011515110F110F0E0411111557
:10379000040A0402020800000010130119110711A5
:1037A0001304080504151311111913010211111145
:1037B0000A11080104100800000000000000001FAA
:1037C000100215000208150406000004130404107A
:1037D0001F10110211100606041F0404151F110109
:1037E000110101111104080501111911011505102C
:1037F000041111150A04020204080000001E110140
:10380000111F021E11040803041511110F1E010ED1
:1038100002111115041E040204080000000000003B
:103820000000000A0F190900040404040400060241
:103830001104021108111102110806040800020007
:1038400015111111090101111104090901111111B9
:103850000109091004110A151104010208080000E9
:1038600000111111110102101104090504111111A7
:103870000110011012190A150A10020204080000B2
:10388000000000000004000A0418160008020000EE
:10389000020006010E0E1F0E080E0E020E0600029A
:1038A000100001040E110F0E071F010E110E06115C
:1038B0001F11110E0116110F040E040A11041F0E20
:1038C000100E001F001E0F0E1E0E020E110E060916
:1038D0000E11110E0110010F0C16040A110E1F0C0F
:1038E00004060000000000000000000000000000CE
:1038F00000000000000000000000000000000000C8
:1039000000000000000000000000000000000000B7
:1039100000000000000000000000000000000000A7
:103920000000000000000000000000000000000097
:103930000000000000000000000000000000000087
:103940000000000000000000000000005C390000E2
:1039500020030164080802000100000000186C6CDC
:1039600010CE3808600C0000000000007C307C7C29
:10397000C6FE7CFE7C7C000070001C7C7C7C7E7C17
:103980007EFEFE7CC63C78C606C6C67C7E7C7E7CFF
:103990007EC6C6C6C6C6FE7C007C10000C000600B3
:1039A00060003800060000060C0000000000000067
:1039B000000000000000003018188C00000000001B
:1039C00000186CFEFC6A2C1830186C18000000C03F
:1039D000C638C6C6C606C6C0C6C61818387C38C69D
:1039E000C6C6C6C6C60606C6C618306606EECEC62B
:1039F000C6C6C6C618C6C6C6C6C6C00C066038004F
:103A00000C00060060000C00061830060C000000D8
:103A10000000000018000000000000181830D60058
:103A200000000000001848FE162E2C181830381818
:103A300000000060C63060C0C6060660C6C6181822
:103A40001C7C70C6F6C6C606C6060606C618303604
:103A500006FEDEC6C6C6C60618C6C6C66CC6600C5E
:103A60000C606C00043C3E3C7C3C3C3C3E000066F0
:103A70000C6E3E3C3E3C363C186666C666667E185A
:103A800018306200000000000018006C7C10DC00A0
:103A90001830FE7E1C7E0030C6303070FE7E7E30D8
:103AA0007CFC00000E00E070F6FE7E06C61E1EF6D0
:103AB000FE18301E06D6F6C67EC67E7C18C6C6D652
:103AC00038FC300C1860C6000060660666660C663E
:103AD000661830360CD6666666666E067C6666C606
:103AE0003C66300C0060000000000000000000FE9A
:103AF000D0E866001830387E1C7E1C18C63018C00E
:103B0000C0C0C618C6C018181C7C703076C6C60661
:103B1000C60606C6C618303606C6E6C606B6C6C00F
:103B200018C6C6FE6CC0180C30600000007C66062B
:103B3000667E0C7C6618301E0CD666663E56063CC9
:103B4000186666D6187C18181830000000000000AF
:103B5000001800FE7EAC660030186C1818001C0CB3
:103B6000C6300CC6C0C6C60CC6C61818387C38008D
:103B700006C6C6C6C60606C6C618366606C6C6C683
:103B80000666C6C618C66CEEC6C00C0C606000FEA9
:103B90000066660666060C60661836360CC66666F3
:103BA0000626066018663CD63C600C1818300000EB
:103BB000000000000018006C10E6DC00600C00182B
:103BC0000C001C067C78FE7CC07C7C067C7C000C97
:103BD00070001C307CC67E7C7EFE06FCC63C1CC68B
:103BE000FEC6C67C06DCC67C187C38C6C67EFE7C5B
:103BF000C07C00FE007C3E3C7C3C0C3E66701C663B
:103C000038C6663C065C063E707C18FC663E7E301C
:103C10001818000000000000000000000000000074
:103C20000000000000000000000000000000000094
:103C30000000000000000000000000000000000084
:103C40000000000000000000000000000000000074
:103C50000000000000000000000000000000000064
:103C60000000000000000000000000000000000054
:103C7000000000000000000000000000080911081A
:103C80004859542D393339200A48554D494449542F
:103C900059200A53454E534F520055736520707595
:103CA0007368627574746F6E20233120746F0A75A7
:103CB00070646174652074656D706572617475728D
:103CC00065200A616E642068756D69646974792085
:103CD00076616C7565732E2E0048756D6964697424
:103CE00079203D200054656D706572617475726550
:103CF000203D200052454144494E47204552524FF5
:103D00005200434F4D4D414E44204D4F444500001D
:103D10000101000000000000486B010000000000ED
:103D2000822500004A250000662500003E2500008F
:103D300066250000AA240000662500003E2500003C
:103D40004A2500004A250000AA2400003E25000064
:103D5000E8250000E8250000E82500006C250000AB
:103D60004A2500004A250000322600003C250000BC
:103D700032260000AA240000322600003C25000064
:103D80004A2500004A250000AA2400003C25000026
:103D9000E8250000E8250000E825000016260000C0
:103DA000D6270000CE270000CE270000C62700003F
:103DB0001827000018270000BC270000C6270000B5
:103DC00018270000BC27000018270000C6270000A5
:103DD0001A2700001A2700001A2700006028000098
:103DE0004300000018000020232D302B2000686CB9
:103DF0004C0065666745464700303132333435360E
:103E00003738394142434445460030313233343546
:103E1000363738396162636465660000000000006F
:083E2000CCC2FF7F010000008D
:103E28000080000000366E013D0400000000000024
:103E3800D500002000100000000000000000000075
:103E4800000000000000000000000000000000006A
:103E58000000000000000000E03D0000000000003D
:103E6800000000000000000000000000000000004A
:103E7800000000000000000000000000000000003A
:103E8800000000000000000000000000000000002A
:103E9800000000000000000018000020B50000002D
:083EA8008D0000000000000085
:040000030000016593
:00000001FF
